{
  "contractName": "Owned",
  "abi": [
    {
      "constant": true,
      "inputs": [],
      "name": "owner",
      "outputs": [
        {
          "name": "",
          "type": "address"
        }
      ],
      "payable": false,
      "stateMutability": "view",
      "type": "function"
    },
    {
      "inputs": [],
      "payable": false,
      "stateMutability": "nonpayable",
      "type": "constructor"
    },
    {
      "constant": false,
      "inputs": [
        {
          "name": "newOwner",
          "type": "address"
        }
      ],
      "name": "transferOwnership",
      "outputs": [],
      "payable": false,
      "stateMutability": "nonpayable",
      "type": "function"
    }
  ],
  "bytecode": "0x608060405234801561001057600080fd5b50336000806101000a81548173ffffffffffffffffffffffffffffffffffffffff021916908373ffffffffffffffffffffffffffffffffffffffff1602179055506101da806100606000396000f30060806040526004361061004c576000357c0100000000000000000000000000000000000000000000000000000000900463ffffffff1680638da5cb5b14610051578063f2fde38b146100a8575b600080fd5b34801561005d57600080fd5b506100666100eb565b604051808273ffffffffffffffffffffffffffffffffffffffff1673ffffffffffffffffffffffffffffffffffffffff16815260200191505060405180910390f35b3480156100b457600080fd5b506100e9600480360381019080803573ffffffffffffffffffffffffffffffffffffffff169060200190929190505050610110565b005b6000809054906101000a900473ffffffffffffffffffffffffffffffffffffffff1681565b6000809054906101000a900473ffffffffffffffffffffffffffffffffffffffff1673ffffffffffffffffffffffffffffffffffffffff163373ffffffffffffffffffffffffffffffffffffffff1614151561016b57600080fd5b806000806101000a81548173ffffffffffffffffffffffffffffffffffffffff021916908373ffffffffffffffffffffffffffffffffffffffff160217905550505600a165627a7a7230582095c14dc7d352dc2162e89487c1b18a50c4c68f8874e7117bc7dfca0c098386880029",
  "source": "pragma solidity ^0.4.21;\n\n\n// Open Zeppelin library for preventing overflows and underflows.\nlibrary SafeMath {\n    function mul(uint256 a, uint256 b) internal pure returns (uint256) {\n        if (a == 0) {\n            return 0;\n        }\n        uint256 c = a * b;\n        assert(c / a == b);\n        return c;\n    }\n\n    function div(uint256 a, uint256 b) internal pure returns (uint256) {\n        // assert(b > 0); // Solidity automatically throws when dividing by 0.\n        uint256 c = a / b;\n        // assert(a == b * c + a % b); // There is no case in which this doesn't hold.\n        return c;\n    }\n\n    function sub(uint256 a, uint256 b) internal pure returns (uint256) {\n        assert(b <= a);\n        return a - b;\n    }\n\n    function add(uint256 a, uint256 b) internal pure returns (uint256) {\n        uint256 c = a + b;\n        assert(c >= a);\n        return c;\n    }\n}\n\n\n// ERC20 Token interface.\ninterface IERC20 {\n    function totalSupply() public constant returns (uint256 totalSupply);\n    function balanceOf(address _owner) public constant returns (uint256 balance);\n    function transfer(address _to, uint256 _value) public returns (bool success);\n    event Transfer(address indexed _from, address indexed _to, uint256 _value);\n}\n\n\n// Contract onwer restrictions.\ncontract Owned {\n    address public owner;\n\n    function Owned() public {\n        owner = msg.sender;\n    }\n\n    modifier onlyOwner {\n        require(msg.sender == owner);\n        _;\n    }\n\n    function transferOwnership(address newOwner) public onlyOwner {\n        owner = newOwner;\n    }\n}\n\n\ncontract VOGenPoints is IERC20, Owned {\n    // Overlay of the Safemath library on uint256 datatype\n    using SafeMath for uint256;\n\n    // Restrinct the usage of a function to a user\n    modifier onlyUser {\n        require(!containsOrg(msg.sender));\n        _;\n    }\n\n    // Restrict the usage of a function to an org\n    modifier onlyOrg {\n        require(containsOrg(msg.sender));\n        _;\n    }\n\n    // Contract variables.\n    uint public constant INITIAL_SUPPLY =  1000000000000;                // Initial supply of tokens: 1.000.000.000.000\n    uint public _totalSupply =  0;                                      // Total amount of tokens\n    address public owner;                                               // Address of the contract owner\n    address[] public orgs;                                             // Array of organisation addresses\n\n    // Cryptocurrency characteristics.\n    string public constant symbol = \"VOG\";                              // Cryprocurrency symbol\n    string public constant name = \"VOGen Coin\";                          // Cryptocurrency name\n    uint8 public constant decimals = 18;                                // Standard number for Eth Token\n    uint256 public constant RATE = 1000000000000000000;                 // 1 ETH = 10^18 VOG;\n\n    // Map definions.\n    mapping (address => uint256) public balances;                       // Map [User,Amount]\n    mapping (address => bool) public orgsMap;                          // Map [Org,Official]\n    mapping (address => mapping (address => uint256)) public allowed;   // Map [User,[OtherUser,Amount]]\n\n    // Events definition.\n    // This notify clients about the transfer.\n    event Transfer(address indexed _from, address indexed _to, uint256 _value);\n\n    // Constructor, set the contract sender/deployer as owner.\n    function VOGenPoints() public {\n        // Check for the null address.\n        require(msg.sender != 0x00);\n        // Update total supply with decimals.\n        _totalSupply = INITIAL_SUPPLY * 10 ** uint256(decimals);\n        // Give an initial supply to the contract creator.\n        balances[msg.sender] = _totalSupply;\n        // Who deploys the contract is the owner.\n        owner = msg.sender;\n        // Add owner in orgs Array.\n        orgs.push(owner);\n        // add owner in orgsMap.\n        orgsMap[owner] = true;\n    }\n\n    /******************************************************************************\n     * Fallback function, a function with no name that gets called.                *\n     * whenever you do not actually pass a function name.                         *\n     * This allow people to just send money directly to the contract address.     *\n     ******************************************************************************/\n    function () public payable {\n        // People will send money directly to the contract address.\n    }\n\n    /*****************************************************************************\n    * Check if an organisation exists.                                                    *\n    ******************************************************************************/\n    function containsOrg(address _org) public view returns (bool) {\n        return orgsMap[_org];\n    }\n\n    /*****************************************************************************\n    * Perform a VOGen token generation.                                           *\n    ******************************************************************************/\n    function createTokens() public payable onlyOwner {\n        // Check if the amount trasfered is greather than 0.\n        require(msg.value > 0);\n        // Check if the sender address is 0.\n        require(msg.sender != 0x00);\n        // Create tokens from Ether multiplying for 10^18\n        uint256 tokens = msg.value.mul(RATE);\n        // Add tokens to the buyer account.\n        balances[msg.sender] = balances[msg.sender].add(tokens);\n        // Total supply number increased by the new token creation.\n        _totalSupply = _totalSupply.add(tokens);\n        // Transfer the amount to the owner, auto rollback if the transaction fails.\n        owner.transfer(msg.value);\n    }\n\n    /*****************************************************************************\n    * Return the total supply of the token.                                      *\n    *                                                                            *\n    *                                                                            *\n    * Return the value of the variable `_totalSupply`.                           *\n    ******************************************************************************/\n    function totalSupply() public constant returns (uint256 totalSupply) {\n        // Value of the contract variable\n        return _totalSupply;\n    }\n\n    /*****************************************************************************\n    * Return the balance of an account.                                          *\n    *                                                                            *\n    * Return the amount of money of the `_account`.                              *\n    *                                                                            *\n    * @param _account the address of the account of which I want the balance.    *\n    ******************************************************************************/\n    function balanceOf(address _account) public constant returns (uint256 balance) {\n        return balances[_account];\n    }\n\n    /*****************************************************************************\n    * Transfer tokens from sender to receiver.                                   *\n    *                                                                            *\n    * Send `_value` tokens from the msg.sender to the `_to` address.             *\n    *                                                                            *\n    * @param _to the address of the receiver.                                    *\n    * @param _value the amount of points to send.                                *\n    ******************************************************************************/\n    function transfer(address _to, uint256 _value) public returns (bool success) {\n        _value = _value * 10 ** uint256(decimals);\n        // Check if the sender has enough.\n        require(balances[msg.sender] >= _value);\n        // Check if the amount trasfered is greather than 0.\n        require(_value > 0);\n        // Prevent transfer to 0x0 address.\n        require(_to != 0x0);\n        // Check for overflows.\n        require(balances[_to] + _value > balances[_to]);\n        // Check for underflows.\n        require(balances[msg.sender] - _value < balances[msg.sender]);\n        // Save for the future assertion.\n        uint previousBalances = balances[msg.sender].add(balances[_to]);\n        // Subtract the token amount from the sender.\n        balances[msg.sender] = balances[msg.sender].sub(_value);\n        // Add the token amount to the recipient.\n        balances[_to] = balances[_to].add(_value);\n        // Emit the Transfer event.\n        emit Transfer(msg.sender, _to, _value);\n        // Asserts are used to use static analysis to find bugs in code. They should never fail.\n        assert(balances[msg.sender].add(balances[_to]) == previousBalances);\n        return true;\n    }\n\n    /*****************************************************************************\n    * Get the most important token informations                                  *\n    ******************************************************************************/\n    function getSummary() public view returns (uint, address, string, string, uint8, uint256) {\n        uint exponent = 10 ** uint(decimals);\n        uint256 tokenUnits = _totalSupply / exponent;\n        return(\n            tokenUnits,\n            owner,\n            symbol,\n            name,\n            decimals,\n            RATE\n        );\n    }\n\n    /*****************************************************************************\n    * Add a new org to the collection of official orgs                         *\n    ******************************************************************************/\n    function addOrg(address _newOrg) public onlyOwner returns (bool) {\n        // Add organisation in orgs Array\n        orgs.push(_newOrg);\n        // Add organisation in orgsMap\n        orgsMap[_newOrg] = true;\n        return true;\n    }\n\n    /*****************************************************************************\n    * Returns the number of the official orgs                                   *\n    ******************************************************************************/\n    function getOrgsCount() public view returns (uint) {\n        return orgs.length;\n    }\n}",
  "sourcePath": "/Users/deepankarsinghtomar/Downloads/eth-vogen-points-system/ethereum/contracts/VOGenPoints.sol",
  "compiler": {
    "name": "solc",
    "version": "0.4.25+commit.59dbf8f1.Emscripten.clang"
  },
  "schemaVersion": "2.0.2",
  "updatedAt": "2019-07-29T22:17:24.635Z"
}