{
  "contractName": "VOGenPoints",
  "abi": [
    {
      "constant": true,
      "inputs": [],
      "name": "name",
      "outputs": [
        {
          "name": "",
          "type": "string"
        }
      ],
      "payable": false,
      "stateMutability": "view",
      "type": "function"
    },
    {
      "constant": true,
      "inputs": [
        {
          "name": "",
          "type": "address"
        }
      ],
      "name": "orgsMap",
      "outputs": [
        {
          "name": "",
          "type": "bool"
        }
      ],
      "payable": false,
      "stateMutability": "view",
      "type": "function"
    },
    {
      "constant": true,
      "inputs": [
        {
          "name": "",
          "type": "address"
        }
      ],
      "name": "balances",
      "outputs": [
        {
          "name": "",
          "type": "uint256"
        }
      ],
      "payable": false,
      "stateMutability": "view",
      "type": "function"
    },
    {
      "constant": true,
      "inputs": [],
      "name": "INITIAL_SUPPLY",
      "outputs": [
        {
          "name": "",
          "type": "uint256"
        }
      ],
      "payable": false,
      "stateMutability": "view",
      "type": "function"
    },
    {
      "constant": true,
      "inputs": [],
      "name": "decimals",
      "outputs": [
        {
          "name": "",
          "type": "uint8"
        }
      ],
      "payable": false,
      "stateMutability": "view",
      "type": "function"
    },
    {
      "constant": true,
      "inputs": [],
      "name": "_totalSupply",
      "outputs": [
        {
          "name": "",
          "type": "uint256"
        }
      ],
      "payable": false,
      "stateMutability": "view",
      "type": "function"
    },
    {
      "constant": true,
      "inputs": [
        {
          "name": "",
          "type": "uint256"
        }
      ],
      "name": "orgs",
      "outputs": [
        {
          "name": "",
          "type": "address"
        }
      ],
      "payable": false,
      "stateMutability": "view",
      "type": "function"
    },
    {
      "constant": true,
      "inputs": [
        {
          "name": "",
          "type": "address"
        },
        {
          "name": "",
          "type": "address"
        }
      ],
      "name": "allowed",
      "outputs": [
        {
          "name": "",
          "type": "uint256"
        }
      ],
      "payable": false,
      "stateMutability": "view",
      "type": "function"
    },
    {
      "constant": true,
      "inputs": [],
      "name": "RATE",
      "outputs": [
        {
          "name": "",
          "type": "uint256"
        }
      ],
      "payable": false,
      "stateMutability": "view",
      "type": "function"
    },
    {
      "constant": true,
      "inputs": [],
      "name": "owner",
      "outputs": [
        {
          "name": "",
          "type": "address"
        }
      ],
      "payable": false,
      "stateMutability": "view",
      "type": "function"
    },
    {
      "constant": true,
      "inputs": [],
      "name": "symbol",
      "outputs": [
        {
          "name": "",
          "type": "string"
        }
      ],
      "payable": false,
      "stateMutability": "view",
      "type": "function"
    },
    {
      "constant": false,
      "inputs": [
        {
          "name": "newOwner",
          "type": "address"
        }
      ],
      "name": "transferOwnership",
      "outputs": [],
      "payable": false,
      "stateMutability": "nonpayable",
      "type": "function"
    },
    {
      "inputs": [],
      "payable": false,
      "stateMutability": "nonpayable",
      "type": "constructor"
    },
    {
      "payable": true,
      "stateMutability": "payable",
      "type": "fallback"
    },
    {
      "anonymous": false,
      "inputs": [
        {
          "indexed": true,
          "name": "_from",
          "type": "address"
        },
        {
          "indexed": true,
          "name": "_to",
          "type": "address"
        },
        {
          "indexed": false,
          "name": "_value",
          "type": "uint256"
        }
      ],
      "name": "Transfer",
      "type": "event"
    },
    {
      "constant": true,
      "inputs": [
        {
          "name": "_org",
          "type": "address"
        }
      ],
      "name": "containsOrg",
      "outputs": [
        {
          "name": "",
          "type": "bool"
        }
      ],
      "payable": false,
      "stateMutability": "view",
      "type": "function"
    },
    {
      "constant": false,
      "inputs": [],
      "name": "createTokens",
      "outputs": [],
      "payable": true,
      "stateMutability": "payable",
      "type": "function"
    },
    {
      "constant": true,
      "inputs": [],
      "name": "totalSupply",
      "outputs": [
        {
          "name": "totalSupply",
          "type": "uint256"
        }
      ],
      "payable": false,
      "stateMutability": "view",
      "type": "function"
    },
    {
      "constant": true,
      "inputs": [
        {
          "name": "_account",
          "type": "address"
        }
      ],
      "name": "balanceOf",
      "outputs": [
        {
          "name": "balance",
          "type": "uint256"
        }
      ],
      "payable": false,
      "stateMutability": "view",
      "type": "function"
    },
    {
      "constant": false,
      "inputs": [
        {
          "name": "_to",
          "type": "address"
        },
        {
          "name": "_value",
          "type": "uint256"
        }
      ],
      "name": "transfer",
      "outputs": [
        {
          "name": "success",
          "type": "bool"
        }
      ],
      "payable": false,
      "stateMutability": "nonpayable",
      "type": "function"
    },
    {
      "constant": true,
      "inputs": [],
      "name": "getSummary",
      "outputs": [
        {
          "name": "",
          "type": "uint256"
        },
        {
          "name": "",
          "type": "address"
        },
        {
          "name": "",
          "type": "string"
        },
        {
          "name": "",
          "type": "string"
        },
        {
          "name": "",
          "type": "uint8"
        },
        {
          "name": "",
          "type": "uint256"
        }
      ],
      "payable": false,
      "stateMutability": "view",
      "type": "function"
    },
    {
      "constant": false,
      "inputs": [
        {
          "name": "_newOrg",
          "type": "address"
        }
      ],
      "name": "addOrg",
      "outputs": [
        {
          "name": "",
          "type": "bool"
        }
      ],
      "payable": false,
      "stateMutability": "nonpayable",
      "type": "function"
    },
    {
      "constant": true,
      "inputs": [],
      "name": "getOrgsCount",
      "outputs": [
        {
          "name": "",
          "type": "uint256"
        }
      ],
      "payable": false,
      "stateMutability": "view",
      "type": "function"
    }
  ],
  "bytecode": "0x6080604052600060015534801561001557600080fd5b50336000806101000a81548173ffffffffffffffffffffffffffffffffffffffff021916908373ffffffffffffffffffffffffffffffffffffffff16021790555060003373ffffffffffffffffffffffffffffffffffffffff161415151561007c57600080fd5b601260ff16600a0a64e8d4a5100002600181905550600154600460003373ffffffffffffffffffffffffffffffffffffffff1673ffffffffffffffffffffffffffffffffffffffff1681526020019081526020016000208190555033600260006101000a81548173ffffffffffffffffffffffffffffffffffffffff021916908373ffffffffffffffffffffffffffffffffffffffff1602179055506003600260009054906101000a900473ffffffffffffffffffffffffffffffffffffffff1690806001815401808255809150509060018203906000526020600020016000909192909190916101000a81548173ffffffffffffffffffffffffffffffffffffffff021916908373ffffffffffffffffffffffffffffffffffffffff16021790555050600160056000600260009054906101000a900473ffffffffffffffffffffffffffffffffffffffff1673ffffffffffffffffffffffffffffffffffffffff1673ffffffffffffffffffffffffffffffffffffffff16815260200190815260200160002060006101000a81548160ff0219169083151502179055506113b9806102296000396000f300608060405260043610610112576000357c0100000000000000000000000000000000000000000000000000000000900463ffffffff16806306fdde031461011457806313e2f61f146101a457806318160ddd146101ff57806327e235e31461022a5780632ff2e9dc14610281578063313ce567146102ac5780633eaaf86b146102dd5780634051ddac146103085780634396e5f2146104525780634f5c2e6c146104ad5780635c6581651461051a578063664e97041461059157806370a08231146105bc578063734160711461061357806376eb92ab1461066e5780638da5cb5b1461069957806395d89b41146106f0578063a9059cbb14610780578063b4427263146107e5578063f2fde38b146107ef575b005b34801561012057600080fd5b50610129610832565b6040518080602001828103825283818151815260200191508051906020019080838360005b8381101561016957808201518184015260208101905061014e565b50505050905090810190601f1680156101965780820380516001836020036101000a031916815260200191505b509250505060405180910390f35b3480156101b057600080fd5b506101e5600480360381019080803573ffffffffffffffffffffffffffffffffffffffff16906020019092919050505061086b565b604051808215151515815260200191505060405180910390f35b34801561020b57600080fd5b5061021461088b565b6040518082815260200191505060405180910390f35b34801561023657600080fd5b5061026b600480360381019080803573ffffffffffffffffffffffffffffffffffffffff169060200190929190505050610895565b6040518082815260200191505060405180910390f35b34801561028d57600080fd5b506102966108ad565b6040518082815260200191505060405180910390f35b3480156102b857600080fd5b506102c16108b6565b604051808260ff1660ff16815260200191505060405180910390f35b3480156102e957600080fd5b506102f26108bb565b6040518082815260200191505060405180910390f35b34801561031457600080fd5b5061031d6108c1565b604051808781526020018673ffffffffffffffffffffffffffffffffffffffff1673ffffffffffffffffffffffffffffffffffffffff16815260200180602001806020018560ff1660ff168152602001848152602001838103835287818151815260200191508051906020019080838360005b838110156103ab578082015181840152602081019050610390565b50505050905090810190601f1680156103d85780820380516001836020036101000a031916815260200191505b50838103825286818151815260200191508051906020019080838360005b838110156104115780820151818401526020810190506103f6565b50505050905090810190601f16801561043e5780820380516001836020036101000a031916815260200191505b509850505050505050505060405180910390f35b34801561045e57600080fd5b50610493600480360381019080803573ffffffffffffffffffffffffffffffffffffffff16906020019092919050505061099e565b604051808215151515815260200191505060405180910390f35b3480156104b957600080fd5b506104d8600480360381019080803590602001909291905050506109f4565b604051808273ffffffffffffffffffffffffffffffffffffffff1673ffffffffffffffffffffffffffffffffffffffff16815260200191505060405180910390f35b34801561052657600080fd5b5061057b600480360381019080803573ffffffffffffffffffffffffffffffffffffffff169060200190929190803573ffffffffffffffffffffffffffffffffffffffff169060200190929190505050610a32565b6040518082815260200191505060405180910390f35b34801561059d57600080fd5b506105a6610a57565b6040518082815260200191505060405180910390f35b3480156105c857600080fd5b506105fd600480360381019080803573ffffffffffffffffffffffffffffffffffffffff169060200190929190505050610a63565b6040518082815260200191505060405180910390f35b34801561061f57600080fd5b50610654600480360381019080803573ffffffffffffffffffffffffffffffffffffffff169060200190929190505050610aac565b604051808215151515815260200191505060405180910390f35b34801561067a57600080fd5b50610683610bd0565b6040518082815260200191505060405180910390f35b3480156106a557600080fd5b506106ae610bdd565b604051808273ffffffffffffffffffffffffffffffffffffffff1673ffffffffffffffffffffffffffffffffffffffff16815260200191505060405180910390f35b3480156106fc57600080fd5b50610705610c03565b6040518080602001828103825283818151815260200191508051906020019080838360005b8381101561074557808201518184015260208101905061072a565b50505050905090810190601f1680156107725780820380516001836020036101000a031916815260200191505b509250505060405180910390f35b34801561078c57600080fd5b506107cb600480360381019080803573ffffffffffffffffffffffffffffffffffffffff16906020019092919080359060200190929190505050610c3c565b604051808215151515815260200191505060405180910390f35b6107ed6110b2565b005b3480156107fb57600080fd5b50610830600480360381019080803573ffffffffffffffffffffffffffffffffffffffff16906020019092919050505061127d565b005b6040805190810160405280600a81526020017f564f47656e20436f696e0000000000000000000000000000000000000000000081525081565b60056020528060005260406000206000915054906101000a900460ff1681565b6000600154905090565b60046020528060005260406000206000915090505481565b64e8d4a5100081565b601281565b60015481565b600080606080600080600080601260ff16600a0a9150816001548115156108e457fe5b04905080600260009054906101000a900473ffffffffffffffffffffffffffffffffffffffff166040805190810160405280600381526020017f564f4700000000000000000000000000000000000000000000000000000000008152506040805190810160405280600a81526020017f564f47656e20436f696e000000000000000000000000000000000000000000008152506012670de0b6b3a76400008393508292509750975097509750975097505050909192939495565b6000600560008373ffffffffffffffffffffffffffffffffffffffff1673ffffffffffffffffffffffffffffffffffffffff16815260200190815260200160002060009054906101000a900460ff169050919050565b600381815481101515610a0357fe5b906000526020600020016000915054906101000a900473ffffffffffffffffffffffffffffffffffffffff1681565b6006602052816000526040600020602052806000526040600020600091509150505481565b670de0b6b3a764000081565b6000600460008373ffffffffffffffffffffffffffffffffffffffff1673ffffffffffffffffffffffffffffffffffffffff168152602001908152602001600020549050919050565b60008060009054906101000a900473ffffffffffffffffffffffffffffffffffffffff1673ffffffffffffffffffffffffffffffffffffffff163373ffffffffffffffffffffffffffffffffffffffff16141515610b0957600080fd5b60038290806001815401808255809150509060018203906000526020600020016000909192909190916101000a81548173ffffffffffffffffffffffffffffffffffffffff021916908373ffffffffffffffffffffffffffffffffffffffff160217905550506001600560008473ffffffffffffffffffffffffffffffffffffffff1673ffffffffffffffffffffffffffffffffffffffff16815260200190815260200160002060006101000a81548160ff02191690831515021790555060019050919050565b6000600380549050905090565b600260009054906101000a900473ffffffffffffffffffffffffffffffffffffffff1681565b6040805190810160405280600381526020017f564f47000000000000000000000000000000000000000000000000000000000081525081565b600080601260ff16600a0a8302925082600460003373ffffffffffffffffffffffffffffffffffffffff1673ffffffffffffffffffffffffffffffffffffffff1681526020019081526020016000205410151515610c9957600080fd5b600083111515610ca857600080fd5b60008473ffffffffffffffffffffffffffffffffffffffff1614151515610cce57600080fd5b600460008573ffffffffffffffffffffffffffffffffffffffff1673ffffffffffffffffffffffffffffffffffffffff1681526020019081526020016000205483600460008773ffffffffffffffffffffffffffffffffffffffff1673ffffffffffffffffffffffffffffffffffffffff1681526020019081526020016000205401111515610d5c57600080fd5b600460003373ffffffffffffffffffffffffffffffffffffffff1673ffffffffffffffffffffffffffffffffffffffff1681526020019081526020016000205483600460003373ffffffffffffffffffffffffffffffffffffffff1673ffffffffffffffffffffffffffffffffffffffff1681526020019081526020016000205403101515610dea57600080fd5b610e7b600460008673ffffffffffffffffffffffffffffffffffffffff1673ffffffffffffffffffffffffffffffffffffffff16815260200190815260200160002054600460003373ffffffffffffffffffffffffffffffffffffffff1673ffffffffffffffffffffffffffffffffffffffff1681526020019081526020016000205461131b90919063ffffffff16565b9050610ecf83600460003373ffffffffffffffffffffffffffffffffffffffff1673ffffffffffffffffffffffffffffffffffffffff1681526020019081526020016000205461133990919063ffffffff16565b600460003373ffffffffffffffffffffffffffffffffffffffff1673ffffffffffffffffffffffffffffffffffffffff16815260200190815260200160002081905550610f6483600460008773ffffffffffffffffffffffffffffffffffffffff1673ffffffffffffffffffffffffffffffffffffffff1681526020019081526020016000205461131b90919063ffffffff16565b600460008673ffffffffffffffffffffffffffffffffffffffff1673ffffffffffffffffffffffffffffffffffffffff168152602001908152602001600020819055508373ffffffffffffffffffffffffffffffffffffffff163373ffffffffffffffffffffffffffffffffffffffff167fddf252ad1be2c89b69c2b068fc378daa952ba7f163c4a11628f55a4df523b3ef856040518082815260200191505060405180910390a38061109e600460008773ffffffffffffffffffffffffffffffffffffffff1673ffffffffffffffffffffffffffffffffffffffff16815260200190815260200160002054600460003373ffffffffffffffffffffffffffffffffffffffff1673ffffffffffffffffffffffffffffffffffffffff1681526020019081526020016000205461131b90919063ffffffff16565b1415156110a757fe5b600191505092915050565b60008060009054906101000a900473ffffffffffffffffffffffffffffffffffffffff1673ffffffffffffffffffffffffffffffffffffffff163373ffffffffffffffffffffffffffffffffffffffff1614151561110f57600080fd5b60003411151561111e57600080fd5b60003373ffffffffffffffffffffffffffffffffffffffff161415151561114457600080fd5b61115f670de0b6b3a76400003461135290919063ffffffff16565b90506111b381600460003373ffffffffffffffffffffffffffffffffffffffff1673ffffffffffffffffffffffffffffffffffffffff1681526020019081526020016000205461131b90919063ffffffff16565b600460003373ffffffffffffffffffffffffffffffffffffffff1673ffffffffffffffffffffffffffffffffffffffff1681526020019081526020016000208190555061120b8160015461131b90919063ffffffff16565b600181905550600260009054906101000a900473ffffffffffffffffffffffffffffffffffffffff1673ffffffffffffffffffffffffffffffffffffffff166108fc349081150290604051600060405180830381858888f19350505050158015611279573d6000803e3d6000fd5b5050565b6000809054906101000a900473ffffffffffffffffffffffffffffffffffffffff1673ffffffffffffffffffffffffffffffffffffffff163373ffffffffffffffffffffffffffffffffffffffff161415156112d857600080fd5b806000806101000a81548173ffffffffffffffffffffffffffffffffffffffff021916908373ffffffffffffffffffffffffffffffffffffffff16021790555050565b600080828401905083811015151561132f57fe5b8091505092915050565b600082821115151561134757fe5b818303905092915050565b60008060008414156113675760009150611386565b828402905082848281151561137857fe5b0414151561138257fe5b8091505b50929150505600a165627a7a723058208702454cd37042af3b6820229f4326ce271eabd09d4cb486f4b920dcf4d1e71e0029",
  "source": "pragma solidity ^0.4.21;\n\n\n// Open Zeppelin library for preventing overflows and underflows.\nlibrary SafeMath {\n    function mul(uint256 a, uint256 b) internal pure returns (uint256) {\n        if (a == 0) {\n            return 0;\n        }\n        uint256 c = a * b;\n        assert(c / a == b);\n        return c;\n    }\n\n    function div(uint256 a, uint256 b) internal pure returns (uint256) {\n        // assert(b > 0); // Solidity automatically throws when dividing by 0.\n        uint256 c = a / b;\n        // assert(a == b * c + a % b); // There is no case in which this doesn't hold.\n        return c;\n    }\n\n    function sub(uint256 a, uint256 b) internal pure returns (uint256) {\n        assert(b <= a);\n        return a - b;\n    }\n\n    function add(uint256 a, uint256 b) internal pure returns (uint256) {\n        uint256 c = a + b;\n        assert(c >= a);\n        return c;\n    }\n}\n\n\n// ERC20 Token interface.\ninterface IERC20 {\n    function totalSupply() public constant returns (uint256 totalSupply);\n    function balanceOf(address _owner) public constant returns (uint256 balance);\n    function transfer(address _to, uint256 _value) public returns (bool success);\n    event Transfer(address indexed _from, address indexed _to, uint256 _value);\n}\n\n\n// Contract onwer restrictions.\ncontract Owned {\n    address public owner;\n\n    function Owned() public {\n        owner = msg.sender;\n    }\n\n    modifier onlyOwner {\n        require(msg.sender == owner);\n        _;\n    }\n\n    function transferOwnership(address newOwner) public onlyOwner {\n        owner = newOwner;\n    }\n}\n\n\ncontract VOGenPoints is IERC20, Owned {\n    // Overlay of the Safemath library on uint256 datatype\n    using SafeMath for uint256;\n\n    // Restrinct the usage of a function to a user\n    modifier onlyUser {\n        require(!containsOrg(msg.sender));\n        _;\n    }\n\n    // Restrict the usage of a function to an org\n    modifier onlyOrg {\n        require(containsOrg(msg.sender));\n        _;\n    }\n\n    // Contract variables.\n    uint public constant INITIAL_SUPPLY =  1000000000000;                // Initial supply of tokens: 1.000.000.000.000\n    uint public _totalSupply =  0;                                      // Total amount of tokens\n    address public owner;                                               // Address of the contract owner\n    address[] public orgs;                                             // Array of organisation addresses\n\n    // Cryptocurrency characteristics.\n    string public constant symbol = \"VOG\";                              // Cryprocurrency symbol\n    string public constant name = \"VOGen Coin\";                          // Cryptocurrency name\n    uint8 public constant decimals = 18;                                // Standard number for Eth Token\n    uint256 public constant RATE = 1000000000000000000;                 // 1 ETH = 10^18 VOG;\n\n    // Map definions.\n    mapping (address => uint256) public balances;                       // Map [User,Amount]\n    mapping (address => bool) public orgsMap;                          // Map [Org,Official]\n    mapping (address => mapping (address => uint256)) public allowed;   // Map [User,[OtherUser,Amount]]\n\n    // Events definition.\n    // This notify clients about the transfer.\n    event Transfer(address indexed _from, address indexed _to, uint256 _value);\n\n    // Constructor, set the contract sender/deployer as owner.\n    function VOGenPoints() public {\n        // Check for the null address.\n        require(msg.sender != 0x00);\n        // Update total supply with decimals.\n        _totalSupply = INITIAL_SUPPLY * 10 ** uint256(decimals);\n        // Give an initial supply to the contract creator.\n        balances[msg.sender] = _totalSupply;\n        // Who deploys the contract is the owner.\n        owner = msg.sender;\n        // Add owner in orgs Array.\n        orgs.push(owner);\n        // add owner in orgsMap.\n        orgsMap[owner] = true;\n    }\n\n    /******************************************************************************\n     * Fallback function, a function with no name that gets called.                *\n     * whenever you do not actually pass a function name.                         *\n     * This allow people to just send money directly to the contract address.     *\n     ******************************************************************************/\n    function () public payable {\n        // People will send money directly to the contract address.\n    }\n\n    /*****************************************************************************\n    * Check if an organisation exists.                                                    *\n    ******************************************************************************/\n    function containsOrg(address _org) public view returns (bool) {\n        return orgsMap[_org];\n    }\n\n    /*****************************************************************************\n    * Perform a VOGen token generation.                                           *\n    ******************************************************************************/\n    function createTokens() public payable onlyOwner {\n        // Check if the amount trasfered is greather than 0.\n        require(msg.value > 0);\n        // Check if the sender address is 0.\n        require(msg.sender != 0x00);\n        // Create tokens from Ether multiplying for 10^18\n        uint256 tokens = msg.value.mul(RATE);\n        // Add tokens to the buyer account.\n        balances[msg.sender] = balances[msg.sender].add(tokens);\n        // Total supply number increased by the new token creation.\n        _totalSupply = _totalSupply.add(tokens);\n        // Transfer the amount to the owner, auto rollback if the transaction fails.\n        owner.transfer(msg.value);\n    }\n\n    /*****************************************************************************\n    * Return the total supply of the token.                                      *\n    *                                                                            *\n    *                                                                            *\n    * Return the value of the variable `_totalSupply`.                           *\n    ******************************************************************************/\n    function totalSupply() public constant returns (uint256 totalSupply) {\n        // Value of the contract variable\n        return _totalSupply;\n    }\n\n    /*****************************************************************************\n    * Return the balance of an account.                                          *\n    *                                                                            *\n    * Return the amount of money of the `_account`.                              *\n    *                                                                            *\n    * @param _account the address of the account of which I want the balance.    *\n    ******************************************************************************/\n    function balanceOf(address _account) public constant returns (uint256 balance) {\n        return balances[_account];\n    }\n\n    /*****************************************************************************\n    * Transfer tokens from sender to receiver.                                   *\n    *                                                                            *\n    * Send `_value` tokens from the msg.sender to the `_to` address.             *\n    *                                                                            *\n    * @param _to the address of the receiver.                                    *\n    * @param _value the amount of points to send.                                *\n    ******************************************************************************/\n    function transfer(address _to, uint256 _value) public returns (bool success) {\n        _value = _value * 10 ** uint256(decimals);\n        // Check if the sender has enough.\n        require(balances[msg.sender] >= _value);\n        // Check if the amount trasfered is greather than 0.\n        require(_value > 0);\n        // Prevent transfer to 0x0 address.\n        require(_to != 0x0);\n        // Check for overflows.\n        require(balances[_to] + _value > balances[_to]);\n        // Check for underflows.\n        require(balances[msg.sender] - _value < balances[msg.sender]);\n        // Save for the future assertion.\n        uint previousBalances = balances[msg.sender].add(balances[_to]);\n        // Subtract the token amount from the sender.\n        balances[msg.sender] = balances[msg.sender].sub(_value);\n        // Add the token amount to the recipient.\n        balances[_to] = balances[_to].add(_value);\n        // Emit the Transfer event.\n        emit Transfer(msg.sender, _to, _value);\n        // Asserts are used to use static analysis to find bugs in code. They should never fail.\n        assert(balances[msg.sender].add(balances[_to]) == previousBalances);\n        return true;\n    }\n\n    /*****************************************************************************\n    * Get the most important token informations                                  *\n    ******************************************************************************/\n    function getSummary() public view returns (uint, address, string, string, uint8, uint256) {\n        uint exponent = 10 ** uint(decimals);\n        uint256 tokenUnits = _totalSupply / exponent;\n        return(\n            tokenUnits,\n            owner,\n            symbol,\n            name,\n            decimals,\n            RATE\n        );\n    }\n\n    /*****************************************************************************\n    * Add a new org to the collection of official orgs                         *\n    ******************************************************************************/\n    function addOrg(address _newOrg) public onlyOwner returns (bool) {\n        // Add organisation in orgs Array\n        orgs.push(_newOrg);\n        // Add organisation in orgsMap\n        orgsMap[_newOrg] = true;\n        return true;\n    }\n\n    /*****************************************************************************\n    * Returns the number of the official orgs                                   *\n    ******************************************************************************/\n    function getOrgsCount() public view returns (uint) {\n        return orgs.length;\n    }\n}",
  "sourcePath": "/Users/deepankarsinghtomar/Downloads/eth-vogen-points-system/ethereum/contracts/VOGenPoints.sol",
  "compiler": {
    "name": "solc",
    "version": "0.4.25+commit.59dbf8f1.Emscripten.clang"
  },
  "schemaVersion": "2.0.2",
  "updatedAt": "2019-07-29T22:21:39.068Z"
}